S0140000536572766F436F6E74726F6C2E7372656320
S11300000C943E000C9448000C9448000C94480056
S11300100C9448000C9448000C9448000C9448003C
S11300200C9448000C9448000C9448000C9448002C
S11300300C9448000C9448000C9448000C9448001C
S11300400C9448000C9448000C9448000C9448000C
S11300500C9448000C9448000C9448000C944800FC
S11300600C9448000C9448000C9448000C944800EC
S11300700C9448000C9448000C94480011241FBEB2
S1130080CFEFD8E0DEBFCDBF0E947B000C94EE0022
S11300900C94000087B18C6187B9089588B1886099
S11300A088B988B1877F88B9089588B1806188B993
S11300B081E0982F9A95F1F798B19F7E98B98A9527
S11300C0F1F70895CF93DF93D82FC0E00DC0DD235F
S11300D024F488B1846088B903C088B18B7F88B95F
S11300E00E944E00DD0FCF5FC83088F30E94550098
S11300F0DF91CF910895E0E8F0E08081826A808307
S1130100E1E8F0E080818B6180838FE794E0909355
S11301108700809386008AB180638AB911B80E94EF
S11301204A00009B2CC00099FECF8FEF95E3019706
S1130130F1F700C0000081E090E00E946200E8E86E
S1130140F0E08CE890E0918380839FEF2FE583E0DB
S1130150915020408040E1F700C0000089E190E028
S1130160918380839FEF2FE985E091502040804068
S1130170E1F700C0000080E090E00E946200019B73
S1130180D0CF0199FECF8FEF95E30197F1F700C02F
S1130190000082E090E00E946200E8E8F0E08CE871
S11301A090E0918380839FEF2FE583E0915020407E
S11301B08040E1F700C0000089E190E091838083F2
S11301C09FEF2FE985E0915020408040E1F700C087
S11301D0000080E090E00E946200A3CFF894FFCF7B
S9030000FC
