S00D00004C323933442E73726563E9
S11300000C943E000C9448000C9448000C94480056
S11300100C9448000C9448000C9448000C9448003C
S11300200C9448000C9448000C9448000C9448002C
S11300300C9448000C9448000C9448000C9448001C
S11300400C9448000C9448000C9448000C9448000C
S11300500C9448000C9448000C9448000C944800FC
S11300600C9448000C9448000C9448000C944800EC
S11300700C9448000C9448000C94480011241FBEB2
S1130080CFEFD8E0DEBFCDBF0E944A000C948B00B6
S11300900C94000087B1836087B984B1886084B907
S11300A081B18E7781B980E487BD84B5806884BDD1
S11300B084B5836084BD85B5877F85BD85B5836040
S11300C085BD85B58B7F85BD88B1816088B988B1D0
S11300D08D7F88B9009B0EC087B5863F58F4009980
S11300E0FECF8FEF95E30197F1F700C0000087B5CD
S11300F0865E87BD079BE8CF87B58D3028F30799C7
S1130100FECF8FEF95E30197F1F700C0000087B5AC
S10D01108A5187BDD9CFF894FFCFC0
S9030000FC
