S00B00004C43442E7372656346
S11300000C943E000C945B000C945B000C945B001D
S11300100C945B000C945B000C945B000C945B00F0
S11300200C945B000C945B000C945B000C945B00E0
S11300300C945B000C945B000C945B000C945B00D0
S11300400C945B000C945B000C945B000C945B00C0
S11300500C945B000C945B000C945B000C945B00B0
S11300600C945B000C945B000C945B000C945B00A0
S11300700C945B000C945B000C945B0011241FBE79
S1130080CFEFD8E0DEBFCDBF11E0A0E0B1E0E4E700
S1130090F2E002C005900D92A231B107D9F721E038
S11300A0A2E1B1E001C01D92A531B207E1F70E94BF
S11300B0EE000C9438010C94000095B19F70282F29
S11300C0207F922B95B995B19E7F95B995B1926099
S11300D095B900C000C095B19D7F95B936EF3A95AA
S11300E0F1F725B130E1839FC0011124922F9F7055
S11300F0892B85B985B1826085B900C000C085B1FE
S11301008D7F85B983E397E00197F1F7089595B161
S11301109F70282F207F922B95B995B1916095B946
S113012095B1926095B900C000C095B19D7F95B915
S113013036EF3A95F1F725B130E1839FC0011124E0
S1130140922F9F70892B85B985B1826085B900C0D3
S113015000C085B18D7F85B983E397E00197F1F7FE
S113016008958FEF84B98FEF97E40197F1F700C0FA
S1130170000082E00E945D0088E20E945D008CE045
S11301800E945D0086E00E945D0081E00E945D00A7
S113019083E397E00197F1F708950F931F93CF93AB
S11301A0DF938C01C0E0D0E003C00E948700219659
S11301B0F801EC0FFD1F80818111F7CFDF91CF9102
S11301C01F910F91089581E00E945D0083E397E001
S11301D00197F1F780E80E945D00089581B18F775F
S11301E081B98FEF87B90E94B10080E091E00E944D
S11301F0CD0080EC90E00E945D008AE091E00E94D6
S1130200CD008091140190E0C0960E948700079B66
S11302100EC08FEF95E30197F1F700C0000088B19D
S11302208E7F88B91092130110921201F0CF88B119
S1130230816088B98091120190911301019789F02E
S1130240809114018F5F809314010E94E3008AE07F
S113025091E00E94CD008091140190E0C0960E942C
S1130260870081E090E09093130180931201CFCF37
S1070270F894FFCF2C
S113027447697020546965626500436F696E733A17
S1050284200054
S9030000FC
