:100000000C943E000C945B000C945B000C945B0021
:100010000C9460040C945B000C945B000C945B00EB
:100020000C945B000C945B000C945B000C945B00E4
:100030000C945B000C945B000C945B000C945B00D4
:100040000C944D060C945B000C945B000C945B00CC
:100050000C947E080C945B000C945B000C945B0089
:100060000C945B000C945B000C945B000C945B00A4
:100070000C945B000C945B000C945B0011241FBE7D
:10008000CFEFD8E0DEBFCDBF11E0A0E0B1E0E6ECFD
:10009000F7E102C005900D92AA35B107D9F721E02A
:1000A000AAE5B1E001C01D92A139B207E1F70E94B3
:1000B00044020C94E10B0C940000ECEBF0E0108295
:1000C00094EA90839091BC009923E4F79091B90051
:1000D000987F983011F09031B1F490E0880F991F1B
:1000E000862B8093BB0084E88093BC008091BC0089
:1000F0008823E4F78091B900887F883131F080341B
:1001000031F480E008958AE0089580E0089584E164
:1001100008958093BB0084E88093BC008091BC006C
:100120008823E4F78091B900887F883211F085E157
:10013000089580E0089584E98093BC000895CF93EA
:10014000C62F60E00E945D00811108C08C2F0E94C4
:100150008900811103C00E949B0080E0CF91089527
:10016000FC012381622B80810E949F00089528E07A
:10017000FC01238360E00E94B0000895FC0113821B
:1001800060E00E94B00008950F931F93CF938C01FD
:10019000C62F64600E94B00082E08A95F1F700C02B
:1001A0006C2F6B7FC8010E94B0008DE38A95F1F738
:1001B00000C0CF911F910F9108951F93CF93DF93AC
:1001C000EC01162F0E94B000612FCE010E94C400E6
:1001D000DF91CF911F910895FF920F931F93CF93BB
:1001E000DF938C01F42E862F807F90E1699FE001E0
:1001F0001124682F642BC8010E94DD006C2F6F2929
:10020000C8010E94DD00DF91CF911F910F91FF90F7
:1002100008950F931F93CF93DF938C01EB016881B7
:1002200006C041E0C8010E94EC002196688161117E
:10023000F8CFDF91CF911F910F91089540E00E9478
:10024000EC000895CF93DF9300D000D0CDB7DEB798
:10025000198220E42A8324E12B8324E52C83E1E026
:10026000F0E0EC0FFD1FE60FF11D6081640F606888
:100270000E941E010F900F900F900F90DF91CF9171
:100280000895CF93DF93EC0161E00E941E0183E3A8
:1002900097E00197F1F740E060E0CE010E94220173
:1002A000DF91CF91089562E00E941E0183E397E001
:1002B0000197F1F70895FC016581262F24602583BD
:1002C0006C600E941E010895FC0165816B7F65834F
:1002D00068600E941E010895CF93DF93CDB7DEB70B
:1002E0002E970FB6F894DEBF0FBECDBF8887698703
:1002F0004A871B862C8784E08D8782E08E87423078
:1003000018F0822F88608C87222329F0413019F45D
:100310008C8584608C872FEF8FE191E021508040A5
:100320009040E1F700C0000060E0CE0108960E9416
:10033000B0002FEF8FE39BE0215080409040E1F729
:1003400000C0000060E3CE0108960E94B00083E385
:1003500090E10197F1F760E3CE0108960E94DD007D
:1003600083E390E10197F1F760E3CE0108960E94E4
:10037000DD0098EB9A95F1F7000060E2CE01089657
:100380000E94DD006C856062CE0108960E941E010D
:10039000CE0108960E945B01CE0108960E944101A1
:1003A0006E856460CE0108960E941E01CE010896FB
:1003B0000E94530187E0FE013896DE0111960190FC
:1003C0000D928A95E1F729813A814B815C816D819B
:1003D0007E818F8190E02E960FB6F894DEBF0FBE1F
:1003E000CDBFDF91CF91089584B5826084BDEEE6E4
:1003F000F0E080818260808388E087BD85B3826081
:1004000085BB84B5806484BD089585B5816085BD54
:1004100085B5846085BD089580915A0190915B01F6
:10042000892B29F088B1806288B90E94050208955D
:10043000E0E8F0E08081826A8083E1E8F0E080819A
:100440008B6180838FE794E0909387008093860090
:100450008AB180638AB9089587E190E09093C500DE
:100460008093C400E2ECF0E0808186608083E1EC60
:10047000F0E0808188618083808180688083089536
:1004800087B18C6187B9089511B80E9418020E9443
:1004900040020E942C020E94F40120E042E060E150
:1004A00087E20E946C0120938A0130938B01409374
:1004B0008C0150938D0160938E0170938F01809316
:1004C000900162E071E08AE891E00E94090140E059
:1004D00061E08AE891E00E94220166E071E08AE82A
:1004E00091E00E9409017894E8E6F0E08081816063
:1004F0008083EBE6F0E080818B67808387B1806248
:1005000087B9FFCF88B1806188B988B18F7E88B9FB
:10051000089588B1886088B981E0982F9A95F1F79D
:1005200098B1977F98B98A95F1F70895CF93DF93A3
:10053000D82FC0E00DC0DD2324F488B1846088B9D1
:1005400003C088B18B7F88B90E948202DD0FCF5F24
:10055000C83088F30E948902DF91CF91089590916D
:10056000C00095FFFCCF8093C60008950F931F93A2
:10057000CF93DF938C01C0E0D0E009C0F801EC0F0D
:10058000FD1F8081882331F021960E94AF02C03484
:10059000D105A4F3DF91CF911F910F9108950F938F
:1005A0001F93CF93DF93CDB7DEB764970FB6F89460
:1005B000DEBF0FBECDBF8A309105C9F05CF482303A
:1005C000910509F4C3C085309105A1F1019709F0A7
:1005D000E3C076C08233910509F495C0813821E0EB
:1005E000920709F4D6C0449709F0D6C046C081E00E
:1005F0000E949602809172019091730101979093ED
:100600007301809372019F938F9385E191E09F9393
:100610008F938E010F5F1F4F1F930F930E94F70858
:10062000C8010E94B6020F900F900F900F900F908C
:100630000F90B2C082E00E94960280917401909166
:100640007501019790937501809374019F938F9327
:100650008DE191E09F938F938E010F5F1F4F1F934A
:100660000F930E94F708C8010E94B6020F900F90E6
:100670000F900F900F900F908FC084E00E94960211
:100680008091700190917101019790937101809315
:1006900070019F938F9384E291E09F938F938E01DB
:1006A0000F5F1F4F1F930F930E94F708C8010E940E
:1006B000B6020F900F900F900F900F900F906CC09C
:1006C00088E00E94960280916C0190916D010197E3
:1006D00090936D0180936C019F938F938CE291E0D6
:1006E0009F938F938E010F5F1F4F1F930F930E9455
:1006F000F708C8010E94B6020F900F900F900F905C
:100700000F900F9049C080E10E94960280916E0187
:1007100090916F01019790936F0180936E019F9369
:100720008F9385E391E09F938F938E010F5F1F4F0F
:100730001F930F930E94F708C8010E94B6020F9002
:100740000F900F900F900F900F9026C080E20E94A4
:10075000960280916A0190916B01019790936B01D1
:1007600080936A019F938F938DE391E09F938F9382
:100770008E010F5F1F4F1F930F930E94F708C80150
:100780000E94B6020F900F900F900F900F900F9055
:1007900003C08FE30E9496020E940C02E8E8F0E09A
:1007A0008CE890E0918380838FEF9FE523E0815078
:1007B00090402040E1F700C0000089E190E0918383
:1007C00080838FEF9FE925E0815090402040E1F742
:1007D00000C0000080E00E94960264960FB6F89474
:1007E000DEBF0FBECDBFDF91CF911F910F91089556
:1007F000CF93DF93EC0106C082E090E00E94CF022D
:10080000C85CD109C83CD10574F080916A0190910F
:100810006B011816190684F306C081E090E00E946F
:10082000CF02C456D109C436D1056CF080916C0159
:1008300090916D011816190684F305C082E390E0CB
:100840000E94CF02E297C233D1056CF080916E0115
:1008500090916F01181619068CF305C084E190E0A1
:100860000E94CF026497C431D1056CF08091700171
:1008700090917101181619068CF305C08AE090E07A
:100880000E94CF022A97CA30D1056CF08091720184
:1008900090917301181619068CF305C085E090E05D
:1008A0000E94CF022597C530D1053CF0809174019C
:1008B00090917501181619068CF3DF91CF91089568
:1008C0001F920F920FB60F9211240F931F932F9325
:1008D0003F934F935F936F937F938F939F93AF93C8
:1008E000BF93EF93FF93CF93DF93CDB7DEB76497BA
:1008F000DEBFCDBF80915A0190915B01892B11F031
:100900000E940C0200993FC080915E0190915F01AE
:10091000892BC9F580915C0190915D01892B69F06B
:100920002FEF8FE593E0215080409040E1F700C029
:10093000000082E090E00E94CF0280916A019091D5
:100940006B01019690936B0180936A019F938F9343
:100950008DE391E09F938F938E010F5F1F4F1F9345
:100960000F930E94F708C8010E94B60281E090E050
:1009700090935F0180935E010F900F900F900F9006
:100980000F900F9006C0009B04C010925F01109260
:100990005E0101993FC08091620190916301892BB2
:1009A000C9F580915C0190915D01892B69F02FEF71
:1009B0008FE593E0215080409040E1F700C00000B7
:1009C00082E390E00E94CF0280916E0190916F01CE
:1009D000019690936F0180936E019F938F9385E3AF
:1009E00091E09F938F938E010F5F1F4F1F930F9383
:1009F0000E94F708C8010E94B60281E090E090933F
:100A00006301809362010F900F900F900F900F90F1
:100A10000F9006C0019B04C0109263011092620106
:100A200003993FC08091600190916101892BC9F5C4
:100A300080915C0190915D01892B69F02FEF8FE52A
:100A400093E0215080409040E1F700C0000081E039
:100A500090E00E94CF0280916C0190916D0101960F
:100A600090936D0180936C019F938F938CE291E042
:100A70009F938F938E010F5F1F4F1F930F930E94C1
:100A8000F708C8010E94B60281E090E090936101EE
:100A9000809360010F900F900F900F900F900F9028
:100AA00006C0039B04C0109261011092600104997A
:100AB0003FC08091640190916501892BC9F58091B7
:100AC0005C0190915D01892B69F02FEF8FE593E038
:100AD000215080409040E1F700C0000084E190E0A8
:100AE0000E94CF02809170019091710101969093C4
:100AF0007101809370019F938F9384E291E09F93A3
:100B00008F938E010F5F1F4F1F930F930E94F70863
:100B1000C8010E94B60281E090E090936501809345
:100B200064010F900F900F900F900F900F9006C0E0
:100B3000049B04C0109265011092640105993FC0A6
:100B40008091680190916901892BC9F580915C01C0
:100B500090915D01892B69F02FEF8FE593E0215093
:100B600080409040E1F700C0000085E090E00E94E6
:100B7000CF02809174019091750101969093750157
:100B8000809374019F938F938DE191E09F938F9356
:100B90008E010F5F1F4F1F930F930E94F708C8012C
:100BA0000E94B60281E090E0909369018093680111
:100BB0000F900F900F900F900F900F9006C0059B15
:100BC00004C0109269011092680106993FC080919B
:100BD000660190916701892BC9F580915C01909124
:100BE0005D01892B69F02FEF8FE593E02150804064
:100BF0009040E1F700C000008AE090E00E94CF0240
:100C0000809172019091730101969093730180938A
:100C100072019F938F9385E191E09F938F938E0153
:100C20000F5F1F4F1F930F930E94F708C8010E9488
:100C3000B60281E090E090936701809366010F9087
:100C40000F900F900F900F900F9006C0069B04C05E
:100C500010926701109266018FEF93E20197F1F70E
:100C600000C0000064960FB6F894DEBF0FBECDBF83
:100C7000DF91CF91FF91EF91BF91AF919F918F91B4
:100C80007F916F915F914F913F912F911F910F91A4
:100C90000F900FBE0F901F9018951F920F920FB6D6
:100CA0000F9211248F9388B18F7D88B98F910F9007
:100CB0000FBE0F901F901895EF92FF920F931F9306
:100CC000CF93DF93CDB7DEB7C857D1090FB6F894ED
:100CD000DEBF0FBECDBF63E770E086E791E00E9404
:100CE000DB08009731F001960E94BD080E94CF02F8
:100CF000F7C165E770E086E791E00E94DB080097A6
:100D000031F001960E94BD080E94F803E9C16FE628
:100D100070E086E791E00E94DB08892B09F4EBC0C4
:100D200063E670E086E791E00E94DB088C010097A3
:100D300009F4D6C1FC011192CF010E94BD08F82E22
:100D4000E92E02C001501109F1E006371F0731F00A
:100D500028F0F801319780818F36A1F766E471E0C1
:100D6000C8010E94E608892BD9F4F0927201E09242
:100D70007301EF92FF9285E191E09F938F938E0133
:100D80000F5F1F4F1F930F930E94F708C8010E9427
:100D9000B6020F900F900F900F900F900F90A0C180
:100DA00069E471E0C8010E94E608892BD9F4F09249
:100DB0007401E0927501EF92FF928DE191E09F93B3
:100DC0008F938E010F5F1F4F1F930F930E94F708A1
:100DD000C8010E94B6020F900F900F900F900F90D5
:100DE0000F907EC16BE471E0C8010E94E608892B78
:100DF000D9F4F0927001E0927101EF92FF9284E2D7
:100E000091E09F938F938E010F5F1F4F1F930F935E
:100E10000E94F708C8010E94B6020F900F900F9031
:100E20000F900F900F905CC16EE471E0C8010E94BA
:100E3000E608892BD9F4F0926E01E0926F01EF92EF
:100E4000FF9285E391E09F938F938E010F5F1F4F79
:100E50001F930F930E94F708C8010E94B6020F90DB
:100E60000F900F900F900F900F903AC161E571E0D5
:100E7000C8010E94E608892BD9F4F0926C01E09237
:100E80006D01EF92FF928CE291E09F938F938E0120
:100E90000F5F1F4F1F930F930E94F708C8010E9416
:100EA000B6020F900F900F900F900F900F9018C1F7
:100EB00065E571E0C8010E94E608892B09F010C1C0
:100EC000F0926A01E0926B01EF92FF928DE391E064
:100ED0009F938F938E010F5F1F4F1F930F930E945D
:100EE000F708C8010E94B6020F900F900F900F9064
:100EF0000F900F90F5C062E670E086E791E00E94E7
:100F0000DB08009789F001960E94BD08019739F42B
:100F100081E090E090935B0180935A01E1C01092D0
:100F20005B0110925A01DCC064E670E086E791E054
:100F30000E94DB08009789F001960E94BD08019786
:100F400039F481E090E090935D0180935C01C8C02A
:100F500010925D0110925C01C3C06CE670E086E700
:100F600091E00E94DB080097B9F001960E94BD084D
:100F7000019749F48AE891E00E94B7008AE891E07D
:100F80000E945B01ADC08AE891E00E94BE008AE841
:100F900091E00E946401A4C066E770E086E791E0FA
:100FA0000E94DB08892B09F49BC080916B018F9311
:100FB00080916A018F938DE391E09F938F938E01CF
:100FC0000B591F4F1F930F930E94F708C8010E94EF
:100FD000B60226E686EE90E0215080409040E1F790
:100FE00080916F018F9380916E018F9385E391E0E3
:100FF0009F938F93045111091F930F930E94F70839
:10100000C8010E94B602E6E6F6EE20E0E150F040AC
:101010002040E1F780916D018F9380916C018F9357
:101020008CE291E09F938F93045111091F930F93CA
:101030000E94F708C8010E94B60286E696EEE0E03C
:1010400081509040E040E1F7809171018F93809151
:1010500070018F9384E291E09F938F930451110963
:101060001F930F930E94F708C8010E94B602F6E68C
:1010700026EE80E0F15020408040E1F7809175013C
:101080008F93809174018F938DE191E09F938F9363
:10109000045111091F930F930E94F708C8010E9481
:1010A000B60296E6E6EEF0E09150E040F040E1F75F
:1010B000809173018F93809172018F9385E191E00C
:1010C0009F938F93045111091F930F930E94F70868
:1010D0000FB6F894DEBF0FBECDBFC8010E94B602A6
:1010E000C858DF4F0FB6F894DEBF0FBECDBFDF91FB
:1010F000CF911F910F91FF90EF9008951F920F9243
:101100000FB60F9211242F933F934F935F936F93DA
:101110007F938F939F93AF93BF93EF93FF938091B0
:101120000001909101012091C600FC01EA58FE4F98
:101130002083203261F4FC01EA58FE4F2AE020832C
:1011400010920101109200010E945C0605C00196F8
:101150009093010180930001FF91EF91BF91AF91B6
:101160009F918F917F916F915F914F913F912F91BF
:101170000F900FBE0F901F901895FC01882799279C
:10118000E89421912032E9F3293010F02E30C8F391
:101190002B3241F02D3239F4689404C00E94EF08DC
:1011A000820F911D219120532A30C0F31EF4909597
:1011B00081959F4F0895FC018191861721F0882326
:1011C000D9F7992708953197CF010895FB01DC01E4
:1011D0008D91019080190110D9F3990B08957AE04F
:1011E000979F902D879F802D910D11240895AEE03B
:1011F000B0E0EDEFF8E00C94B80B0D891E8986E0A5
:101200008C831A8309838FEF9FE79E838D83AE01C2
:10121000475E5F4F6F89788DCE0101960E94190954
:10122000EF81F885E00FF11F10822E96E4E00C9418
:10123000D40BABE0B0E0EFE1F9E00C94AA0B6C0149
:101240007B018A01FC0117821682838181FFCCC158
:10125000CE0101963C01F6019381F70193FD859142
:1012600093FF81917F01882309F4BAC1853239F453
:1012700093FD859193FF81917F01853229F4B60119
:1012800090E00E94100BE7CF912C212C312CFFE134
:10129000F315D8F08B3279F038F4803279F083325C
:1012A000A1F4232D20611DC08D3261F0803369F4DB
:1012B000232D216016C0832D8260382EE32DE4603B
:1012C0003E2E2AC0F32DF8601DC037FC2DC020ED46
:1012D000280F2A3040F08E32B9F436FC81C1232D1C
:1012E0002064322E19C036FE06C08AE0989E200D7A
:1012F0001124922E11C0EAE02E9E200D1124222EE0
:10130000F32DF0623F2E08C08C3621F4832D8068C7
:10131000382E02C0883641F4F70193FD859193FF82
:1013200081917F018111B3CF982F9F7D9554933088
:1013300028F40C5F1F4F9FE399830DC0833631F073
:10134000833771F0833509F059C021C0F8018081DD
:1013500089830E5F1F4F88248394912C530113C0FF
:101360002801F2E04F0E511CF801A080B18036FE3A
:1013700003C0692D70E002C06FEF7FEFC5010E94CE
:10138000050B4C018201F32DFF773F2E16C028017B
:1013900022E0420E511CF801A080B18036FE03C04D
:1013A000692D70E002C06FEF7FEFC5010E94FA0A5D
:1013B0004C01F32DF0683F2E820133FC1BC0822DBF
:1013C00090E088169906B0F4B60180E290E00E94A1
:1013D000100B2A94F4CFF50137FC859137FE8191EB
:1013E0005F01B60190E00E94100B21102A9421E0C9
:1013F000821A91088114910471F7E8C0843611F0C3
:10140000893641F5F80137FE07C06081718182811C
:1014100093810C5F1F4F08C060817181072E000C03
:10142000880B990B0E5F1F4FF32DFF763F2E97FF12
:1014300009C090958095709561957F4F8F4F9F4F14
:10144000F0683F2E2AE030E0A3010E944C0B882E6A
:10145000861845C0853731F4232D2F7EB22E2AE021
:1014600030E025C0932D997FB92E8F36C1F018F446
:10147000883579F0B5C0803719F0883721F0B0C0D1
:10148000E92FE061BE2EB4FE0DC0FB2DF460BF2E2F
:1014900009C034FE0AC0292F2660B22E06C028E0FB
:1014A00030E005C020E130E002C020E132E0F80188
:1014B000B7FE07C060817181828193810C5F1F4FED
:1014C00006C06081718180E090E00E5F1F4FA30134
:1014D0000E944C0B882E8618FB2DFF773F2E36FE80
:1014E0000DC0232D2E7FA22E891458F434FE0BC07C
:1014F00032FC09C0832D8E7EA82E05C0B82CA32CEB
:1015000003C0B82C01C0B92CA4FE0FC0FE01E80D29
:10151000F11D8081803321F49A2D997EA92E09C076
:10152000A2FE06C0B394B39404C08A2D867809F055
:10153000B394A3FC11C0A0FE06C0B21488F4280C1A
:10154000922C9B180EC0B21460F4B60180E290E0B9
:101550000E94100BB394F7CFB21418F42B1802C0EA
:10156000982C212CA4FE10C0B60180E390E00E94CC
:10157000100BA2FE17C0A1FC03C088E790E002C0D8
:1015800088E590E0B6010CC08A2D867859F0A1FE5E
:1015900002C08BE201C080E2A7FC8DE2B60190E0C0
:1015A0000E94100B891438F4B60180E390E00E9489
:1015B000100B9A94F7CF8A94F301E80DF11D808106
:1015C000B60190E00E94100B8110F5CF222009F4A3
:1015D00042CEB60180E290E00E94100B2A94F6CF32
:1015E000F6018681978102C08FEF9FEF2B96E2E193
:1015F0000C94C60BFC010590615070400110D8F7A7
:10160000809590958E0F9F1F0895FC01615070404A
:1016100001900110D8F7809590958E0F9F1F089527
:101620000F931F93CF93DF93FB01238121FD03C011
:101630008FEF9FEF2CC022FF16C046815781248177
:1016400035814217530744F4A081B1819D012F5F7A
:101650003F4F318320838C93268137812F5F3F4F0B
:101660003783268314C08B01EC01FB010084F185D4
:10167000E02D0995892BE1F6D80116968D919C9164
:101680001797019617969C938E931697CE01DF912C
:10169000CF911F910F910895FA01AA27283051F197
:1016A000203181F1E8946F936E7F6E5F7F4F8F4F93
:1016B0009F4FAF4FB1E03ED0B4E03CD0670F781FF2
:1016C000891F9A1FA11D680F791F8A1F911DA11DD7
:1016D0006A0F711D811D911DA11D20D009F4689410
:1016E0003F912AE0269F11243019305D3193DEF6B8
:1016F000CF010895462F4770405D4193B3E00FD06E
:10170000C9F7F6CF462F4F70405D4A3318F0495D58
:1017100031FD4052419302D0A9F7EACFB4E0A6953B
:101720009795879577956795BA95C9F7009761055D
:10173000710508959B01AC010A2E069457954795B3
:1017400037952795BA95C9F7620F731F841F951FA8
:10175000A01D08952F923F924F925F926F927F92B9
:101760008F929F92AF92BF92CF92DF92EF92FF92B1
:101770000F931F93CF93DF93CDB7DEB7CA1BDB0B5D
:101780000FB6F894DEBF0FBECDBF09942A88398802
:1017900048885F846E847D848C849B84AA84B98409
:1017A000C884DF80EE80FD800C811B81AA81B98115
:1017B000CE0FD11D0FB6F894DEBF0FBECDBFED0129
:0617C0000895F894FFCF2C
:1017C6000100474950005469656265204465636CB1
:1017D60065726371004F31306325640A004F3563CB
:1017E60025640A004F32306325640A004F313030D9
:1017F6006325640A004F35306325640A004F323092
:10180600306325640A00313000350032300035304F
:0A18160000313030003230300000A5
:00000001FF
