S00E000042757A7A65722E7372656394
S11300000C943E000C9448000C9448000C94480056
S11300100C9448000C9448000C9448000C9448003C
S11300200C9448000C9448000C9448000C9448002C
S11300300C9448000C9448000C9448000C9448001C
S11300400C9448000C9448000C9448000C9448000C
S11300500C9448000C9448000C9448000C944800FC
S11300600C9448000C9448000C9448000C944800EC
S11300700C9448000C9448000C94480011241FBEB2
S1130080CFEFD8E0DEBFCDBF0E944A000C945100F0
S11300900C94000087B1816087B988B1816088B908
S10900A0FCCFF894FFCF31
S9030000FC
