:100000000C943E000C9453000C9453000C94530039
:100010000C9453000C9453000C9453000C94530014
:100020000C9453000C9453000C9453000C94530004
:100030000C9453000C9453000C9453000C945300F4
:100040000C9453000C9453000C9453000C945300E4
:100050000C94C4000C9453000C9453000C94530063
:100060000C9453000C9453000C9453000C945300C4
:100070000C9453000C9453000C94530011241FBE95
:10008000CFEFD8E0DEBFCDBF11E0A0E0B1E0EAEFF6
:10009000F1E002C005900D92AE32B107D9F70E948F
:1000A0008A000C94FB000C94000087E190E0909390
:1000B000C5008093C400E2ECF0E08081866080831C
:1000C000E1ECF0E0808188618083808180688083BA
:1000D000789408959091C00095FFFCCF8093C6005E
:1000E00008950F931F93CF93DF938C01C0E0D0E06E
:1000F00009C0F801EC0FFD1F8081882331F02196A3
:100100000E946A00C034D105A4F3DF91CF911F9102
:100110000F9108958FEF87B911B80E94550080E0C4
:1001200091E00E947100009B06C00099FECF8AE01A
:1001300091E00E947100019B06C00199FECF8FE003
:1001400091E00E947100029B06C00299FECF84E1FB
:1001500091E00E947100039B06C00399FECF86E1E7
:1001600091E00E947100049B06C00499FECF89E1D2
:1001700091E00E947100059BD6CF0599FECF8CE1DE
:1001800091E00E947100CFCF1F920F920FB60F9295
:1001900011242F933F934F935F936F937F938F938C
:1001A0009F93AF93BF93EF93FF938091C6008635E3
:1001B00041F488B1806288B983E291E00E947100C5
:1001C00009C0823539F488B1886088B988E291E045
:1001D0000E947100FF91EF91BF91AF919F918F911C
:1001E0007F916F915F914F913F912F910F900FBE33
:0A01F0000F901F901895F894FFCFB0
:1001FA00566572626F6E64656E0047313635004728
:10020A003233350076004C30004C31004F313063C8
:0E021A003131004C454435004C454433000062
:00000001FF
