S00F0000373448433136352E7372656383
S11300000C943E000C9448000C9448000C94480056
S11300100C9448000C9448000C9448000C9448003C
S11300200C9448000C9448000C9448000C9448002C
S11300300C9448000C9448000C9448000C9448001C
S11300400C9448000C9448000C9448000C9448000C
S11300500C9448000C9448000C9448000C944800FC
S11300600C9448000C9448000C9448000C944800EC
S11300700C9448000C9448000C94480011241FBEB2
S1130080CFEFD8E0DEBFCDBF0E9464000C94900097
S11300900C94000088B1826088B98FEF95E30197D2
S11300A0F1F700C0000088B18F7D88B9089588B148
S11300B08B7F88B98FEF95E30197F1F700C00000BB
S11300C088B1846088B9089587B1866287B98AB196
S11300D08D7F8AB988B18F7D88B911B80E94570085
S11300E0499B04C088B1806288B903C088B18F7D00
S11300F088B9009B0AC00099FECF8FEF95E3019762
S1130100F1F700C000000E944A00019BE9CF00996A
S1130110FECF8FEF95E30197F1F700C00000E0CF29
S1070120F894FFCF7D
S9030000FC
