S0130000436F696E436F756E7465722E73726563A8
S11300000C943E000C945B000C945B000C945B001D
S11300100C945B000C945B000C945B000C945B00F0
S11300200C945B000C945B000C945B000C945B00E0
S11300300C945B000C945B000C945B000C945B00D0
S11300400C945B000C945B000C945B000C945B00C0
S11300500C94AD010C945B000C945B000C945B005D
S11300600C945B000C945B000C945B000C945B00A0
S11300700C945B000C945B000C945B0011241FBE79
S1130080CFEFD8E0DEBFCDBF11E0A0E0B1E0EEE3FA
S1130090F4E002C005900D92A835B107D9F721E02C
S11300A0A8E5B1E001C01D92AE36B207E1F70E94A7
S11300B048010C941D020C94000087E190E0909399
S11300C0C5008093C400E2ECF0E080818660808308
S11300D0E1ECF0E0808188618083808180688083A6
S11300E0789408959091C00095FFFCCF8093C6004A
S11300F008950F931F93CF93DF938C01C0E0D0E05A
S113010009C0F801EC0FFD1F8081882331F021968E
S11301100E947200C034D105A4F3DF91CF911F91E6
S11301200F91089502C0885C9109883C9105DCF721
S113013002C08456910984369105DCF701C0C29748
S113014082339105E4F701C0449784319105E4F7C3
S113015001C00A978A309105E4F701C005978530FC
S11301609105E4F70895E0E8F0E08081826A8083F5
S1130170E1E8F0E080818B6180838FE794E09093E5
S11301808700809386008AB180638AB9089587B115
S11301908C6187B9089588B1886088B988B1877FF0
S11301A088B9089588B1806188B981E0982F9A95BB
S11301B0F1F798B19F7E98B98A95F1F70895CF9396
S11301C0DF93D82FC0E00DC0DD2324F488B1846010
S11301D088B903C088B18B7F88B90E94CB00DD0F3A
S11301E0CF5FC83088F30E94D200DF91CF91089589
S11301F085309105A1F034F481309105D1F0029756
S113020011F125C08431910579F082339105B1F063
S11302100A97E9F481E090E00E94DF0018C082E0D0
S113022090E00E94DF0013C084E090E00E94DF00B1
S11302300EC088E090E00E94DF0009C080E190E0F9
S11302400E94DF0004C080E290E00E94DF00E8E842
S1130250F0E08CE890E0918380832FEF8FE593E0CA
S1130260215080409040E1F700C0000089E190E017
S1130270918380832FEF8FE995E021508040904057
S1130280E1F700C0000080E090E00E94DF000895E4
S113029081B18F7381B98AB180628AB90E94B30037
S11302A00E94C7000E945D0085E090E00E94F80073
S11302B08AE090E00E94F80084E190E00E94F80057
S11302C082E390E00E94F80081E090E00E94F80050
S11302D082E090E00E94F800E7CF63E770E088E5F1
S11302E091E00E940A02009731F001960E94EC010D
S11302F00E94F800089565E770E088E591E00E94A7
S11303000A02009731F001960E94EC010E949200CB
S1130310089562E670E088E591E00E940A02009781
S113032079F001960E94EC01019729F480E491E0B0
S11303300E94790008958BE491E00E947900089569
S113034066E770E088E591E00E940A02892B21F0BB
S113035086E591E00E94790008951F920F920FB6EE
S11303600F9211242F933F934F935F936F937F9337
S11303708F939F93AF93BF93EF93FF93809100016B
S1130380909101012091C600FC01E85AFE4F2083A0
S1130390203261F4FC01E85AFE4F2AE020831092D7
S11303A00101109200010E946D0105C00196909315
S11303B0010180930001FF91EF91BF91AF919F9153
S11303C08F917F916F915F914F913F912F910F90FA
S11303D00FBE0F901F901895FC0188279927E89469
S11303E021912032E9F3293010F02E30C8F32B325A
S11303F041F02D3239F4689404C00E941502820F32
S1130400911D219120532A30C0F31EF490958195BB
S11304109F4F0895FC018191861721F08823D9F715
S1130420992708953197CF0108957AE0979F902DE9
S1110430879F802D910D11240895F894FFCF1D
S113043E01004F3130632564004F35632564004F4E
S113044E3230632564004F313030632564004F35FC
S113045E30632564004F32303063256400474950C1
S113046E005469656265204465636C65726371004E
S113047E42757A7A65722061616E0042757A7A6588
S10B048E722075697400760008
S9030000FC
